:020000040800F2
:10000000A80C002089010008A32300085B1E00083B
:10001000A123000839040008E930000800000000AE
:10002000000000000000000000000000192C000883
:100030003B04000800000000DF2800081B2C00081B
:10004000A3010008A3010008A3010008A301000800
:10005000A3010008A3010008A3010008A3010008F0
:10006000A3010008A3010008A3010008A3010008E0
:10007000A3010008A3010008A3010008A3010008D0
:10008000A3010008A3010008A3010008A3010008C0
:10009000A3010008A3010008A3010008A3010008B0
:1000A000A3010008A3010008A3010008A3010008A0
:1000B000A3010008A3010008992C0008A30100086F
:1000C000A3010008A3010008A3010008A301000880
:1000D000A3010008DD300008A3010008A301000807
:1000E000A3010008A3010008A301000800F002F822
:1000F00000F03AF80AA090E8000C82448344AAF188
:100100000107DA4501D100F02FF8AFF2090EBAE885
:100110000F0013F0010F18BFFB1A43F0010318473B
:10012000C4420000E4420000103A24BF78C878C1FD
:10013000FAD8520724BF30C830C144BF04680C60ED
:10014000704700000023002400250026103A28BF35
:1001500078C1FBD8520728BF30C148BF0B60704739
:100160001FB51FBD10B510BD00F09EF81146FFF77A
:10017000F7FF02F0CBFF00F0BCF803B4FFF7F2FF8B
:1001800003BC00F0BFF80000094880470948004759
:10019000FEE7FEE7FEE7FEE7FEE7FEE7FEE7FEE737
:1001A000FEE7FEE704480549054A064B7047000094
:1001B000972C0008ED000008A8060020A80C0020DD
:1001C000A8080020A80800204FF0000200B5134640
:1001D00094469646203922BFA0E80C50A0E80C5067
:1001E000B1F12001BFF4F7AF090728BFA0E80C5018
:1001F00048BF0CC05DF804EB890028BF40F8042B11
:1002000008BF704748BF20F8022B11F0804F18BF7D
:1002100000F8012B704700004FF0013C50F8042B10
:1002200051F8043B9A4221D1A2EB0C03934313EA09
:10023000CC1317D150F8042B51F8043B9A4215D136
:10024000A2EB0C03934313EACC130BD150F8042B0D
:1002500051F8043B9A4209D1A2EB0C03934313EAF1
:10026000CC13DBD04FF00000704700BFD01A01BAAA
:10027000B1FA81F101F0180122FA01F0CB40C1F18D
:100280002001DBB2C0B2C01A2CFA01F3D11A91439B
:1002900011EAC311E6D170477047704770470000FC
:1002A00000487047440600207546FFF7F9FFAE4648
:1002B00005006946534620F00700854618B020B572
:1002C000FFF770FFBDE820404FF000064FF0000739
:1002D0004FF000084FF0000B21F00701AC46ACE8EE
:1002E000C009ACE8C009ACE8C009ACE8C0098D465B
:1002F000704710B50446AFF300802046BDE81040BB
:10030000FFF73BBF01491820ABBEFEE72600020005
:100310007047000070B5044600688168C943C9078A
:1003200017D1816821F00101816000F0E1FC0546F0
:100330000AE000BF00F0DCFC401B022804D9206862
:100340008068C043C00706D020688068C043C007EB
:10035000F0D0002070BDA06A40F01000A062E06AFA
:1003600040F00100E062012070BD00003EB50024B5
:100370000090012001900520029069460B4800F092
:10038000F9F818B9094800F0CFFA08B100203EBDCD
:100390000A21064800F02AFA18B9044800F068F962
:1003A00084B2024800F020FB20463EBDAC00002095
:1003B000F8B500260446009600688168C943C9075D
:1003C0002DD0816841F0010181601648164900680E
:1003D000B0FBF1F000E0401E00900028FBD100F0DF
:1003E00087FC054616E000BF00F082FC401B022897
:1003F00010D920688068C043C0070BD0A06A40F0C5
:100400001000A062E06A40F00100E06284F824601D
:100410000120F8BD20688068C043C007E4D10020F7
:10042000F8BD00000C00002040420F00014800F021
:1004300035B80000AC000020FEE7704702480021FC
:1004400041700170704700002000002010494A7878
:1004500032B1012A03D1052801D10020487070472C
:100460000B4A012812780AD002280CD00528F6D1B0
:10047000084800EBC200007988700120EEE7002AEE
:10048000EDD0521E02E0022AE9D2521C0A707047D7
:1004900020000020A443000872B6FEE7F8B500254E
:1004A0000446009590F8240001280BD0012084F820
:1004B00024002046FFF72EFF2046FFF779FF0600B5
:1004C00002D050E00220F8BDA06A20F4885040F02D
:1004D0000200A062022000F0A9FC25490968B1FBD6
:1004E000F0F0400000E0401E00900028FBD12068A2
:1004F000816841F00801816000F0FAFB074608E0DE
:1005000000F0F6FBC01B0A2803D9206880680007AA
:1005100015D4206880680007F2D42068816841F013
:100520000401816000F0E4FB074612E000F0E0FB0C
:10053000C01B0A280DD920688068400709D5A06A29
:1005400020F0020040F01000A06284F82450012046
:10055000F8BD206880684007E8D4A06A20F0020057
:1005600040F00100A06284F824503046F8BD00003D
:100570000C000020F8B50024009490F824202546B3
:10058000012A12D0012280F824204A681F23072A5A
:100590000DD20668776B521E02EB820293409F4396
:1005A0000B6893401F43776319E00220F8BD06688B
:1005B0000D2A0AD2376BD21F02EB820293409F436F
:1005C0000B6893401F43376309E0F76A0D3A02EB6B
:1005D000820293409F430B6893401F43F7620A686F
:1005E000072306680A2A0AD3F7680A3A02EB42028E
:1005F00093409F438B6893401F43F76008E037693F
:1006000002EB420293409F438B6893401F43376144
:100610000A68102A01D0112A20D1124B02689A428E
:1006200017D193681B0219D4936843F400039360B5
:100630000968102912D10C490C4A0968B1FBF2F182
:1006400001EB8101490000E0491E00910029FBD126
:1006500004E0816A41F020018162012480F8245085
:100660002046F8BD002401400C00002040420F004D
:100670000068C06C704700002DE9F0414FF00007A2
:1006800004003D467ED0A06A002628B9E66284F8C0
:100690002460204600F07EF82046FFF73BFEA16A6A
:1006A000C90600D420B1A06A40F01000A06269E041
:1006B000A16A21F4885141F00201A1626268E169F6
:1006C000237B0A4347EA43010A43A1684FF480773A
:1006D000B94209D0012907D05FF0000194F814C095
:1006E000BCF1010F02D00AE03946F7E7F3B1A36A83
:1006F00043F02003A362E36A43F00103E36223684B
:10070000D3F804C02CF4694C4CEA010CC3F804C0C3
:1007100021688B68DFF870C003EA0C0313438B6019
:10072000A168B9420BD0012909D00CE0DFF85CC008
:10073000A3690CEB43330B4343F40061DFE7218AE9
:100740000D05A5F580152168CB6A23F470032B43B2
:10075000CB62216889680E4B1940914208D1E6624C
:10076000A16A21F0020141F00101A162BDE8F0811E
:10077000A06A20F0020040F01000A062E06A40F0A1
:100780000100E0620120F1E7FDF7E1FF00E0FFFF7B
:10079000FE0E1FFF00B585B000210091019102916E
:1007A000039100680E49884218D10E48816941F4CE
:1007B00000718161816901F400710491816941F0E6
:1007C000040181618069694600F0040004900F20F3
:1007D000009003200190044800F090F905B000BD9E
:1007E0000024014000100240000801402DE9F843B8
:1007F00000270D460446009700F07AFA80462068EC
:100800008168C90508D5A06A40F02000A06284F87C
:1008100024700120BDE8F8834168C90503D4C06A8B
:1008200010F4700F2AD0022000F000FB3B49096849
:10083000B1FBF0F62068036939490B424FEA6101C8
:100840004FEAA1121FD1C3684FEA611C13EA0C0FD3
:1008500019D103690B4225D1C068104222D114205E
:1008600023E0681C0AD02DB100F042FAA0EB08008A
:10087000A84203D920680068800725D52068006851
:100880008007EED52DE003690B4202D1C168114209
:1008900006D0026923490A4206D1C068084203D142
:1008A000542002E0292000E0FC204643009816E096
:1008B000681C11D02DB100F01BFAA0EB0800A84273
:1008C0000AD90098B04207D2A06A40F00400A062A2
:1008D00084F8247003209DE70098401C0090B042EB
:1008E000E6D321686FF012000860A06A40F400703F
:1008F000A06220688068C0F3424007280CD1207BAA
:1009000050B9A06A20F48070A062A06AC00403D429
:10091000A06A40F00100A06200207BE70C000020EC
:10092000244992244992240070B5044690F824008A
:1009300001280DD0012084F824002046FFF738FD5F
:1009400002004FF0000005D084F82400104670BD6E
:10095000022070BDA16A40F20123994341F48071E5
:10096000A1621F4D23681F49AB4218D10E6816F4CF
:10097000702F14D0A66A46F48016A6620E6876051B
:1009800005D5A66A26F4005646F48056A662A66AE5
:10099000F6040AD5E66A26F00606E66206E0A66ACE
:1009A00026F48016A6625E68E9E7E06284F8240017
:1009B0006FF00200186020688368C3F34243072B7E
:1009C00005D1A84208D1096811F4702F04D08168BC
:1009D00041F480118160B9E7816841F4A001F9E731
:1009E000002801400424014010B5044690F824007A
:1009F000012807D0012084F824002046FFF78AFC54
:100A000010B107E0022010BDA16A21F4885141F025
:100A10000101A162002184F8241010BD10B590F8E6
:100A200021100022022905D00421816380F82020B2
:100A3000012010BD01680B6823F00E030B600168F4
:100A40000B6823F001030B6090F84030C46B012168
:100A500001FA03F3636080F8211080F8202010462B
:100A600010BD000010B590F821100024022903D019
:100A70000421816301243DE001680A6822F00E022E
:100A80000A6001680A6822F001020A601A4A0168D5
:100A9000914201D1012121E0174A1432914201D142
:100AA00010211BE0144A2832914201D1891515E02A
:100AB000114A3C32914201D189140FE00E4A503262
:100AC000914202D14FF4803108E00B4A64329142E6
:100AD00002D14FF4801101E04FF08071064A083ACC
:100AE0005160012180F82110002180F82010416B15
:100AF00001B18847204610BD080002402DE9F84F9B
:100B0000DFF8B8910024A9F1040B23460F2709F15F
:100B1000040AABF1040EC9E00125A5402A40AA420F
:100B20007DD1674ED1F804C0ACEB0608B44532D095
:100B300014DCBCF1030F3AD009DCBCF1000F2AD061
:100B4000BCF1010F1CD0BCF1020F31D11DE0BCF192
:100B5000110F17D0BCF1120F2AD119E0B8F5881F78
:100B600019D006DCB8F5803F15D0B8F5801F1FD12D
:100B700011E0B8F5001F0ED0B8F5041F18D10AE037
:100B8000CB6815E0CB681B1D12E0CB6808330FE083
:100B9000CB680C330CE08B682BB1012B4FF00803B2
:100BA00003D0456104E0042302E0056100E0002376
:100BB000FF2A01D8064601E000F104064FEA840549
:100BC00001D9A5F12005D6F8008007FA05FC28EA2E
:100BD0000C0803FA05F548EA0508C6F800804D68D8
:100BE000ED0062D5374DAE6946F00106AE61AD69E4
:100BF00024F0030605F001050095334D06EB050CC6
:100C0000DCF80850A607360F07FA06F825EA0805AB
:100C1000DFF8B880404503D14FF0000817E044E00A
:100C2000DFF8AC80404502D14FF001080FE0DFF85B
:100C3000A480404502D14FF0020808E0DFF8988018
:100C4000404502D14FF0030801E04FF0040808FAD4
:100C500006F848EA0508CCF808804D68D9F8006025
:100C6000ED024D4601D5164300E096432E604D68D7
:100C7000DAF80060AD02554601D5164300E0964310
:100C80002E604D68DBF80060AD035D4601D516436C
:100C900000E096432E604D68DEF80060ED03754677
:100CA00001D5164300E096432E60641C0D682A4669
:100CB000E5407FF431AFBDE8F88F00000804014043
:100CC0000000111000100240000001400008014027
:100CD000000C0140001001400014014080680840F1
:100CE00000D0012070470AB1016170470904FBE799
:100CF00001488068704700000000002002488168B9
:100D0000027811448160704700000020074810B548
:100D1000016841F010010160032000F075F80F2018
:100D200000F006F800F024F8002010BD002002407A
:100D300070B50D4D04464FF47A712878B1FBF0F090
:100D40000A490968B1FBF0F000F0A4FB48B9102C87
:100D500007D200222146501E00F036F800206C60B9
:100D600070BD012070BD0000000000200C000020BC
:100D70000C4808B5816941F001018161816901F088
:100D800001010091C16941F08051C161C06900F069
:100D9000805000900448416821F0E06141F000710A
:100DA000416008BD0010024000000140002809DB3E
:100DB00000F01F02012191404009800000F1E02075
:100DC000C0F8001170470000F0B40E4B1B680C46D1
:100DD000C3F30223C3F10705042D00D90425191D0F
:100DE000072901D2002300E0DB1E012606FA05F1E7
:100DF000491E214099409E40761E16403143F0BC6A
:100E000002F073B90CED00E0064900F00702086833
:100E10004FF6FF03184040EA0220034A10430860DF
:100E2000704700000CED00E00000FA0510B5014627
:100E30000020234C012922D0022939D010291DD1AC
:100E400061682268D20119D51E48C1F38342C903E3
:100E5000805C0AD561681B4AC1F34041921E515C17
:100E6000194AB2FBF1F1484301E01849484361686F
:100E7000490203D440000321B0FBF1F010BD226A07
:100E8000C2F30121012903D1920701D5C80310BD86
:100E9000022905D1626A920702D549F6404010BD89
:100EA0000329FCD121688903F9D54FF2244010BDF4
:100EB00000F02AF96168C1F38131491C4900DBE780
:100EC000001002404E3A000800127A0000093D006E
:100ED0002DE9F84305460078354CC00754D0E06949
:100EE0000026C00008D4E06940F08050E061E0696D
:100EF000012600F0805000902E480168C90512D4E8
:100F00000168804641F480710160FFF7F1FE0746F9
:100F100005E000BFFFF7ECFEC01B642823D8D8F81B
:100F20000000C005F6D5206A10F4407021D0A988D1
:100F300001F4407181421CD0206A1F49012220F433
:100F400040700A6000220A602062C00711D0FFF7DB
:100F5000CFFE074641F2883808E000BFFFF7C8FE21
:100F6000C11B414502D90320BDE8F883206A8007F0
:100F7000F4D5206A696820F44070084320621EB1ED
:100F8000E06920F08050E0612878800705D560682E
:100F9000A96820F44040084360602878C00605D561
:100FA0006068E96820F48000084360600020DBE7A7
:100FB0000010024000700040400442422DE9F0471A
:100FC0000F46050061D0434E306800F00700B8427C
:100FD00009D2306820F0070038433060306800F0F4
:100FE0000700B84251D128683B4C810712D5400711
:100FF00003D5606840F4E06060602878000703D59E
:10100000606840F4605060606068A96820F0F0009B
:10101000084360602878C00728D06868012810D08D
:101020002168022810D0890700292EDA616821F092
:10103000030101436160FFF75BFE804641F288399E
:101040000DE021688903EFE78901EDE7FFF750FE26
:10105000A0EB0801494502D90320BDE8F08760688C
:10106000696800F00C00B0EB810FEFD1306800F040
:101070000700B8420BD9306820F0070038433060D1
:10108000306800F00700B84201D00120E5E7287879
:10109000400705D56068E96820F4E06008436060B7
:1010A0002878000706D56068296920F4605040EA76
:1010B000C100606000F038F86168084AC1F30311AC
:1010C000515CC8400649086006480068FFF730FEDA
:1010D0000020C2E700200240001002405E3A0008F3
:1010E0000C000020040000200448054900684968FD
:1010F000044AC1F30221515CC84070470C00002033
:10110000001002406E3A000804480549006849682A
:10111000044AC1F3C221515CC84070470C00002052
:10112000001002406E3A00080E4A51680E4801F065
:101130000C03042B11D0082B0FD10C48C1F38343AF
:10114000C903C05C0AD55168084AC1F34041921EE8
:10115000515C054A5043B0FBF1F0704704494843E5
:10116000704700000010024000127A003C3A00086C
:1011700000093D002DE9F84F040070D02078C04DE3
:10118000C00749D06868C0F38100012807D06868AB
:10119000C0F38100022809D16868C00306D5286819
:1011A000800339D560680028E7D035E06068B0F585
:1011B000803F0BD010B1B0F5A02F11D0286820F4DB
:1011C00080302860286820F4802002E0286840F4FD
:1011D00080302860606890B1FFF78AFD06460AE01B
:1011E000286840F480202860F0E700BFFFF780FD0A
:1011F000801B642873D828688003F7D50CE0FFF7BC
:1012000077FD064605E000BFFFF772FD801B6428EE
:10121000F0D828688003F7D420789A4E80074FF0E2
:1012200001094FF0000839D5686810F00C0F07D09D
:101230006868C0F38100022809D16868C00306D439
:101240002868800714D52069012808D110E020699A
:10125000B0B1C6F80090FFF74BFD074605E00AE184
:10126000FFF746FDC01B0228C4D828688007F7D5C1
:101270002868616920F0F80040EAC10028600DE0AC
:10128000C6F80080FFF734FD074604E0FFF730FDA5
:10129000C01B022823D828688007F7D420780007CD
:1012A0002CD57948A169D9B1C0F80090FFF720FD8D
:1012B000074604E0FFF71CFDC01B02280FD8686A30
:1012C0008007F7D571484FF4FA510068B0FBF1F090
:1012D000009000BF0098411E0091FAD20EE080E01D
:1012E000C0F80080FFF704FD074604E0FFF700FDAB
:1012F000C01B022875D8686A8007F7D42078400799
:1013000060D5E8690027C00008D4E86940F0805043
:10131000E861E869012700F0805000905C480168AE
:10132000C90513D40168834641F480710160FFF759
:10133000DFFC824606E000BFFFF7DAFCA0EB0A0004
:1013400064284ED8DBF80000C005F5D5E068012818
:101350000AD008B1052813D0286A20F001002862BD
:10136000286A20F0040002E0286A40F001002862A8
:10137000E06841F2883B98B1FFF7BAFC82460BE087
:10138000286A40F004002862EEE700BFFFF7B0FCD7
:10139000A0EB0A0159455AD8286A8007F6D50CE017
:1013A000FFF7A6FC824605E0FFF7A2FCA0EB0A01CE
:1013B00059454CD8286A8007F6D41FB1E86920F057
:1013C0008050E861E06988B36968C1F3810102294E
:1013D00044D00228C6F8608004D0FFF789FC044698
:1013E00038E034E0FFF784FC074604E0FFF780FCB8
:1013F000C01B02282BD828688001F7D4206AB0F5DA
:10140000803F05D16868A16820F400300843686017
:10141000D4E908010843696821F47411084368603D
:10142000C6F86090FFF764FC044606E025E000BFC4
:10143000FFF75EFC001B022809D828688001F7D559
:101440001BE000BFFFF754FC001B022802D9032059
:10145000BDE8F88F28688001F4D40EE00128F7D0A9
:101460006868226A00F48031914204D1616A00F414
:101470007010884201D00120EAE70020E8E7000070
:101480000010024000004242800442420C00002052
:101490000070004010B5401EB0F1807F01D30120E4
:1014A00010BD4FF0E02460610F21601701F01DFEB8
:1014B0000020A06107202061002010BD7047704708
:1014C00070B590F83C20012A26D0012480F83C40D9
:1014D000022280F83D2003685A689D6822F0700659
:1014E0000A6832435A600D4B02689A4208D0B2F142
:1014F000804F05D00A4B9A4202D00A4B9A4204D13F
:10150000496825F080031943916080F83D4000212F
:1015100080F83C10084670BD022070BD002C0140D0
:10152000000400400008004010B5040003D094F807
:101530003D0010B107E0012010BD002084F83C0000
:10154000204600F01FF8022084F83D00211D20688D
:1015500001F0A8FB012084F8460084F83E0084F8DE
:101560003F0084F8400084F8410084F8420084F889
:10157000430084F8440084F8450084F83D000020CE
:1015800010BD000008B5114A01681148914208D108
:10159000C16941F00201C161C06900F00200009020
:1015A00008BD0C4A9142FBD1C16941F00401C161FF
:1015B000C069002200F00400009011461E20FFF7D1
:1015C00003FCBDE808401E20FFF7F0BB000400400C
:1015D000001002400008004070B5044690F83C003E
:1015E0000025012817D0012684F83C60022084F8E9
:1015F0003D002068826822F0770222F47F428260F8
:101600000868502838D00DDC20284FD005DC90B376
:10161000102811D14AE0022070BD302846D0402861
:101620000AD13BE060282FD070280DD0B0F5805F44
:1016300003D0B0F5005F12D0012584F83D60002092
:1016400084F83C00284670BDCB68D1E901212068B0
:1016500001F064FB2068816841F0770109E0CB6804
:10166000D1E90121206801F059FB2068816841F42B
:1016700080418160E1E719E0CA684968206801F0AB
:1016800001FC5021206806E0CA684968206801F022
:101690000AFC6021206801F04BFBCEE7CA6849686C
:1016A000206801F0EFFB40212068F4E72268014642
:1016B0001046F0E72DE9F0410D46040003D094F800
:1016C0003D0018B108E00120BDE8F081002084F859
:1016D0003C00204600F040F8022084F83D002068DD
:1016E000816844F2070291438160211D206801F066
:1016F000D9FA226890689169166A2B68AF6903432A
:1017000040F20330814341EA0721A868EF690843AA
:101710004FF6FC418843E96840EA07200143286905
:101720002F6A000140EA0730084369686D6926F0B6
:10173000220646EA0515294393602268906154F811
:10174000460B0162012004F81F09E0752076E0765F
:101750002077A0750020B7E710B586B0002400946C
:101760000194029403940068B0F1804F30D119487D
:10177000C16941F00101C161C16901F00101049138
:10178000816941F004018161816901F004010491E2
:10179000816941F0080181618069694600F00800B3
:1017A00004904FF4004000900B48FFF7A7F9082081
:1017B000CDE90004694609480294FFF79FF90849FA
:1017C000486820F4407040F0E06040F48070486069
:1017D00006B010BD0010024000080140000C01409E
:1017E0000000014070472DE9F04104460068C668DA
:1017F00005694FF00007A90713D5B10711D5F91EE8
:10180000016101202077206880698007204602D08E
:10181000FFF7E8FF04E000F0A5F8204600F037F9F4
:101820002777680716D5700714D521686FF0040074
:101830000861022020772068806910F4407F2046EC
:1018400002D0FFF7CFFF04E000F08CF8204600F054
:101850001EF92777280715D5300713D521686FF0B3
:1018600008000861042020772068C06980072046AE
:1018700002D0FFF7B7FF04E000F074F8204600F054
:1018800006F92777E80616D5F00614D521686FF01B
:1018900010000861082020772068C06910F4407F9C
:1018A000204602D0FFF79EFF04E000F05BF82046E0
:1018B00000F0EDF82777E80708D0F00706D0216898
:1018C0006FF001000861204600F0E2F8280608D514
:1018D000300606D521686FF0800008612046FFF7CA
:1018E000EDFD680608D5700606D521686FF040004A
:1018F0000861204600F0D8F8A8060AD5B00608D539
:1019000021686FF0200008612046BDE8F041FFF734
:10191000D6BDBDE8F081000000B585B00021009182
:1019200001910291039100680B49884211D10B4843
:10193000816941F0040181618069694600F0040019
:101940000490C02000900220019003900448FFF70B
:10195000D5F805B000BD00000004004000100240B2
:1019600000080140704770B5044690F83C0000261E
:101970000D4601280FD0012084F83C006AB1042AEA
:101980001DD0082A2FD00C2A3FD00126002084F831
:101990003C00304670BD022070BD206801F0D0F9D7
:1019A0002068816941F0080181612068816921F026
:1019B00004018161206881692A69114311E020686E
:1019C00001F0E6F92068816941F4006181612068D5
:1019D000816921F480618161206881692A6941EA15
:1019E00002218161D2E7206801F0FEF92068C16917
:1019F00041F00801C1612068C16921F00401C161A1
:101A00002068C1692A69114311E0206801F018FAC1
:101A10002068C16941F40061C1612068C16921F495
:101A20008061C1612068C1692A6941EA0221C161FE
:101A3000ACE710B5040003D094F83D0010B107E006
:101A4000012010BD002084F83C00204600F01EF864
:101A5000022084F83D00211D206801F023F90120B7
:101A600084F8460084F83E0084F83F0084F8400083
:101A700084F8410084F8420084F8430084F844006C
:101A800084F8450084F83D00002010BD7047704781
:101A900000680349884202D102490120087070475A
:101AA0000008004010000020704770477047000099
:101AB000F8B5016804460868CA684B6910F00F0F52
:101AC0004FF0000559D003F0010602F49077374338
:101AD00065D0C10705D0D10503D5616C41F0010186
:101AE0006164410705D5D90703D0616C41F002015B
:101AF0006164810705D5D90703D0616C41F0040109
:101B00006164010707D502F02001314303D0616C05
:101B100041F008016164616C00293AD0800604D567
:101B2000900602D5204601F0FFF920684069616CFB
:101B3000C0F38010090700D460B3204601F0CDF94E
:101B400020684069400621D52068143050E8001F05
:101B500021F0400140E80012002AF5D1E06BA8B165
:101B60006D494163E06BFEF77DFF002811D0E06B0B
:101B7000416B01B0BDE8F040084783060FD59306DE
:101B80000DD52046BDE8F84001F0CEB92046FFF75C
:101B90008DFFF8BD2046FFF789FF6564F8BD266B11
:101BA0002023012E7CD1C6067AD5D60678D50868C2
:101BB0004868009048694FF00206400640D5E16B46
:101BC000086840680004000CE8D0A28D8242E5D984
:101BD000E085886920282DD020680C3050E8001F4F
:101BE00021F4807140E80012002AF5D120681430F9
:101BF00050E8001F21F0010140E80012002AF5D151
:101C00002068143050E8001F21F0400140E8001225
:101C1000002AF5D184F84230256320680C3050E862
:101C2000001F21F0100140E80012002AF5D1E06BFE
:101C3000FEF7F4FE6663A08DE18D401A81B22AE0C2
:101C4000A08DE18D401A81B2E08D0028A6D0002938
:101C5000A4D022680C3252E8000F20F4907042E8C1
:101C60000007002FF5D12068143050E8002F22F033
:101C7000010240E80027002FF5D184F842302563A7
:101C800020680C3050E8002F22F0100240E80023BA
:101C9000002BF5D166632046FFF707FFF8BDFFE78D
:101CA00005062BD5150629D594F841002128F5D134
:101CB000A068B0F5805F01D12069B0B1206A411CF5
:101CC0002162216800784860E08C401E0004000C0E
:101CD000E084E3D12068C16821F08001C160206800
:101CE000C16841F04001C160D8E7206A0088C0F3B4
:101CF00008004860206A801C2062E5E74006CDD5D8
:101D00005006CBD5CA68204622F04002CA6084F84B
:101D1000413000F0A1F8C1E7CB2E000870B50400F7
:101D200004D094F84100002510B106E0012070BDF8
:101D300084F84050204600F023F8242084F8410025
:101D40002068C16821F40051C160204601F04EF9BD
:101D50002068016921F4904101612068416921F006
:101D60002A0141612068C16841F40051C160656485
:101D7000202084F8410084F842006563002070BD93
:101D800030B585B000240094019402940394006857
:101D9000184988422CD11848816941F480418161F9
:101DA000816901F480410491816941F004018161FC
:101DB0008069124D00F0040004904FF40070009010
:101DC000022001900320039069462846FEF796FE04
:101DD0002815CDE90004694628460294FEF78EFED8
:101DE000002211462520FEF7EFFF2520FEF7DEFF3B
:101DF00005B030BD0038014000100240000801402D
:101E000090F84230202B01D00220704721B11AB146
:101E10000023036301F046B90120704700680C49B4
:101E2000884213D10B48B0F88410802908D2021DD3
:101E300090F886308B54B0F88410491CA0F88410B8
:101E40000449012200688631FFF7DABF70470000BD
:101E500000380140240000207047FEE770B500F014
:101E60005BF80122114D160231462846FEF73BFF72
:101E7000012251022846FEF736FF00F019F800242F
:101E8000002231462846FEF72EFF00F011F801220D
:101E900031462846FEF727FF00F00AF8641CE4B23A
:101EA000092CEDD3BDE8704000F0B8B8000C01403B
:101EB00008B500200090401C00907828FBD308BD96
:101EC00010B500204FF47A720021491C9142FCD3D6
:101ED000401C9042F8D300F01FF8064C012211027A
:101EE0002046FEF700FF20460122BDE810405102C7
:101EF000FEF7F9BE000C01401FB5002001900390D1
:101F00004FF4007000900120029069460148FEF7EE
:101F1000F5FD1FBD000C01401FB5002002904FF4DD
:101F20000070009001200190032003906946024850
:101F3000FEF7E4FD1FBD0000000C01402DE9F0415B
:101F4000234F002405464FF40078BE15280601D51E
:101F5000012200E0002241463846FEF7C4FEFFF7AA
:101F6000A7FF012231463846FEF7BDFEFFF7A0FF6E
:101F7000002231463846FEF7B6FEFFF799FF6806A5
:101F8000641C050EE4B2082CE0D30122444641460D
:101F90003846FEF7A8FEFFF7AFFFFFF789FF0122E3
:101FA00031463846FEF79FFEFFF782FF214638464E
:101FB000FEF794FE0446002231463846FEF793FEB3
:101FC000FFF776FFFFF7A8FF2046BDE8F08100008D
:101FD000000C014070B5FFF79FFF01220E4D540227
:101FE00021462846FEF77FFE01221602314628468A
:101FF000FEF779FEFFF75CFF002221462846FEF738
:1020000072FEFFF755FF002231462846FEF76BFEB1
:10201000BDE87040FFF74CBF000C014070B5FFF702
:102020007BFF0C4D4FF40074002221462846FEF73A
:102030005AFE012211022846FEF755FEFFF738FF2F
:10204000012221462846FEF74EFEBDE87040FFF70C
:102050002FBF0000000C01402DE9F047FEF748FEBD
:1020600082460020FEF782F981460120FEF77EF9C4
:102070004FF0000840F2DC5147464646454644468C
:1020800040F62822884201D2012703E0904201D97C
:102090004FF00108894501D2012602E0914500D99F
:1020A000012510211748FEF719FE00B90124002070
:1020B0001549B8F1000F01D00A784AB10FB14A783A
:1020C00042B10EB18A783AB14DB1CA7832B106E068
:1020D000012004E0022002E0032000E004204CB1D3
:1020E0000A793AB98B68AAEB0302C82A02D90520FB
:1020F000C1F808A081F800804F708E70CD700C710F
:10210000BDE8F08700080140140000203EB500241F
:1021100011480094019402940E4984600160047394
:102120000475012505614FF460214460C161FEF72B
:10213000A3FA08B1FEF7B0F905200094CDE90150EB
:1021400069460548FEF716FA002801D0FEF7A4F903
:102150003EBD000000240140AC000020F0B585B079
:10216000002420480094019402940394816941F072
:1021700010018161816901F010010491816941F0D0
:1021800020018161816901F020010491816941F0A0
:1021900004018161816901F004010491816941F0C8
:1021A000080181618069104F00F008004FF440760B
:1021B0000490002231463846FEF795FD1020012597
:1021C0008DE8310069460948FEF798FC0220CDE908
:1021D0000240CDE9006569463846FEF78FFC05B040
:1021E000F0BD000000100240000C0140000801405A
:1021F00010B58CB024216846FDF7E6FF0024154891
:1022000009944FF080410A94C0E900144FF6FF7121
:10221000C0E90241046184610120CDE90004CDE9F7
:1022200002040494CDE905400794694609480894DE
:10223000FFF740FA08B1FEF72FF9099409A90548FC
:102240000A94FFF73DF9002801D0FEF725F90CB0FC
:1022500010BD0000DC00002010B58EB000240794F3
:10226000089409940A940B941C2168460C94FDF779
:10227000ABFF2248204901604721C0E901144FF615
:10228000FF71C0E903148461FFF74EF908B1FEF74E
:1022900003F94FF48050079007A91848FFF79CF9FD
:1022A00008B1FEF7F9F81548FFF7C3FB08B1FEF7D0
:1022B000F3F80B940BA911480C94FFF701F908B13E
:1022C000FEF7EAF86020CDE9000402940022694696
:1022D0000A480494FFF747FB08B1FEF7DDF8042233
:1022E00069460648FFF73FFB08B1FEF7D5F80348FB
:1022F000FFF712FB0EB010BD0004004024010020C7
:1023000010B586B0002417480094019402940394F9
:1023100004941349059401604721C0E9011441F276
:102320008731C0E9031480218161FFF7FDF808B10E
:10233000FEF7B2F84FF48050009069460948FFF765
:102340004BF908B1FEF7A8F8049404A905480594D0
:10235000FFF7B6F8002801D0FEF79EF806B010BDD2
:10236000000800406C0100200C4810B50A490160CB
:102370004FF4E1314160002181600C22C160C0E96D
:1023800004128161C161FFF7C9FC002803D0BDE8D8
:102390001040FEF781B810BD00380140B4010020A4
:1023A000FEE7FEE710B50021074C0A46002004EBCB
:1023B000C1131A54401CC0B28028FAD3491CC9B2B8
:1023C0000829F3D310BD000041020020F0B50B44F2
:1023D00024E0044685181DE07F2C19D8002917DB5E
:1023E0003F2915DCCE1701EB56764FEAE60C0D4F70
:1023F00026F0070607EBCC172744A1EB060E97F84B
:1024000000C0012606FA0EF62CEA060C87F800C07A
:10241000641C24B2A542DFDC491C09B28B42D8DC23
:10242000F0BD00004102002010B5FFF749FDFFF7A5
:1024300015FDAE2000F02AFAD52000F027FA802002
:1024400000F024FAA82000F021FA3F2000F01EFA44
:10245000D32000F01BFA002000F018FA402000F012
:1024600015FAA12000F012FAC82000F00FFADA20C5
:1024700000F00CFA122000F009FA812000F006FAB0
:10248000CF2000F003FAD92000F000FAF12000F08C
:10249000FDF9DB2000F0FAF9302000F0F7F9A42074
:1024A00000F0F4F9A62000F0F1F98D2000F0EEF92B
:1024B000142000F0EBF9AF2000F0E8F9FFF772FF0D
:1024C000BDE8104000F0CEB90246012000E05043C4
:1024D000491EFCD2704710B50C4640F0B00000F029
:1024E000D5F9102040EA141000F0D0F904F00F00E4
:1024F000BDE8104000F0CAB908B5082B0DD0062B76
:102500000AD10A4B02EB420203EB4202C03A0092AC
:102510000823062200F06EF808BD054B03EB0212FB
:10252000A2F50072102300920822F3E7664000082B
:10253000763A00082DE9FF5F82B014461D46DDE9BA
:1025400011B607460022134620462946DDF8408092
:1025500001F07CF8334605D82B2238460399FFF763
:10256000CBFF06E02D2238460399FFF7C5FF85F023
:1025700000452046294600F0EFFE824600F019FF94
:1025800022462B4601F0F2F805460C4659460A2031
:10259000FFF79AFF814600F00CFF2A46234600F021
:1025A00057FF00F0DBFD00F0D7FEB0FBF9F1044669
:1025B00001EB0A02B81900B243460096039900F0F5
:1025C00077F808F1010000FB067000B233462E22B6
:1025D0000399FFF791FF08F1020000FB067000B2BB
:1025E0005B4622460096039900F062F806B0BDE80B
:1025F000F09F00002DE9F04F1F4616460D4682461B
:102600000024FFF7E3FE7F1EF81707EB507001214F
:10261000DFF898B001EBE00743E000203DE000BFA9
:102620000AEB00037F2B36D8E91705EB5171CA106E
:1026300021F00701691A002D03DA521E083112B287
:1026400009B202EB0409B9F1070F0ED8099A04FB8D
:1026500006F802440BEBC91E18F802201EF803C04E
:102660008A404CEA020C0EF803C009F10102072A65
:1026700011D80BEBC91202EB0308099A04FB06FC04
:10268000024498F880301CF80220C1F10801CA40C9
:10269000134388F88030401CC0B2B042C0D3641CE1
:1026A000E4B2A742B9DCBDE8F08F0000410200208F
:1026B0002DE9F04700241D4690468A4681460A27A8
:1026C000089E14E0291B0A20491EFFF7FDFEB8FBF7
:1026D000F0F0B0FBF7F107FB110204FB069000B22B
:1026E000334651463032FFF707FF641CE4B2AC4278
:1026F000E8D3BDE8F08700002DE9FF4F002483B048
:102700009B4690462546A246DFF850919EE0100673
:1027100010D403988DF80420641C2844A4B28DF8CA
:1027200005A000B25B460499FFF7E6FE05EB0B003F
:1027300085B28BE00620B0EB521F0ED1641CA0B214
:102740008DF8042018F80010002974D08DF80510B9
:10275000401C84B28DF806A03CE00E20B0EB121FA6
:1027600016D1641CA0B28DF8042018F800100029BE
:1027700071D0401C80B28DF8051018F800100029A7
:1027800069D08DF80610401C84B28DF807A021E0B6
:102790001E20B0EBD20F1FD1641CA0B28DF8042014
:1027A00018F80010002956D0401C80B28DF8051092
:1027B00018F8001000294ED0401C80B28DF8061089
:1027C00018F80010002946D0401C8DF8071084B27C
:1027D0008DF808A0002609E0641CA4B236E0384653
:1027E00001A9FDF719FD68B1761CB6B206EB8600AB
:1027F00000EB461101EB0900074619A1FDF70CFD9E
:102800000028ECD1BBF1080F03D0BBF1060F1DD19E
:1028100012E006EB860000EB461101EB0900401DBB
:10282000009003981023284400B21A460499FFF739
:10283000E1FE103509E00EE003980623284400B2BB
:102840003F220499FFF758FEAD1DADB218F80420E1
:10285000002A7FF45CAF07B0BDE8F08FA04200080B
:102860000000000070B5084D002400212046FFF74D
:1028700032FE05EBC410802100F019F8641CE4B2AC
:10288000082CF2D370BD00004102002010B50446B0
:10289000FFF7A0FB7820FFF751FB0020FFF74EFB6E
:1028A0002046FFF74BFBBDE81040FFF7B7BB70B504
:1028B0000D460646FFF78EFB7820FFF73FFB4020D2
:1028C000FFF73CFB002404E0305DFFF737FB641C9E
:1028D000E4B2AC42F8D3BDE87040FFF79FBB70474D
:1028E000FEB5FFF75FFD78480225062480780426B0
:1028F00068B101287DD00228234679D0002173A237
:102900000846FFF7F9FE062374A2082198E000218B
:10291000062375A20846FFF7EFFE062377A20821DB
:102920000020FFF7E9FE774F386801F015F80096B0
:10293000CDE9015402460B4608211E20FFF7FAFD9F
:10294000062371A210210020FFF7D6FE786801F05F
:1029500003F80096CDE9015402460B4610211E20D3
:10296000FFF7E8FD06236BA218210020FFF7C4FE45
:10297000B86800F0F1FF0096CDE9015402460B461D
:1029800018211E20FFF7D6FD062364A22021002077
:10299000FFF7B2FEF86800F0DFFF0096CDE90154C2
:1029A0000B46024620212420FFF7C4FD06235CA22B
:1029B00020214020FFF7A0FE386900F0CDFF0096EF
:1029C000CDE9015402460B4620216420FFF7B2FDF9
:1029D000062354A228210020FFF78EFE786900F01C
:1029E000BBFF0B46024628212420009667E000E04A
:1029F0002DE0002106234CA20846FFF77DFE0623AA
:102A00004EA208210020FFF777FE4E4C4FF0060340
:102A1000207808B14CA200E04CA208212A20FFF740
:102A20006BFE06234AA210210020FFF765FE062355
:102A3000621C18210020FFF75FFE062327A2382121
:102A40000020FFF759FEBDE8FE40FFF70BBF002155
:102A500041A20846FFF750FE062344A208210020A9
:102A6000FFF74AFE444F386800F076FF0096CDE944
:102A7000015402460B4608213020FFF75BFD062378
:102A80003EA210210020FFF737FE786800F064FFB7
:102A90000096CDE9015402460B4610213020FFF785
:102AA00049FD062338A218210020FFF725FEB8684B
:102AB00000F052FF0B460246182130200096CDE967
:102AC0000154FFF737FDB8E720000020554E4B4E6C
:102AD0004F574E2050414745000000005B4F4B5D73
:102AE0004261636B000000003D3D3D3D5049442084
:102AF0004D4F4E49544F523D3D3D3D00546172672C
:102B000065743A00FC01002041637475616C3A20E1
:102B1000000000004F75747075743A00503A000060
:102B2000493A0000443A00003D3D3D3D564F464184
:102B30002044454255473D3D3D3D000056616C698E
:102B4000643A000020020020594553004E4F2000F7
:102B500052585F4255463A003D3D3D3D53454E5328
:102B60004F5220444154413D3D3D3D005370656509
:102B7000643A20200000000014020020566F6C749C
:102B80006167653A00000000416E676C653A20207D
:102B9000000000002DE9F041FFF704FC00210823AC
:102BA00014A20846FFF7A8FD0024DFF85C80174D4B
:102BB000102600BF98F8001006EB04108C424FF06E
:102BC000080301D112A200E012A201B20F460020B8
:102BD000FFF792FD55F83420082339461020FFF7FF
:102BE0008BFD641CE4B2032CE4D3BDE8F041FFF795
:102BF00039BE00003D3D3D3D4D454E55204C4953AD
:102C0000543D3D3D3D00000020000020A44300084D
:102C10003E200000202000007047FEF76FB830B55E
:102C200093B028216846FDF7CFFA14210AA8FDF7D2
:102C3000CBFA002501200F951095119501041295EE
:102C40008DE8230004904FF4E010CDE90810022431
:102C500007946846FEF78EFA08B172B6FEE70AA935
:102C60000F2081E831004FF48060CDE90D0502218D
:102C70000AA8FEF7A3F908B172B6FEE74FF40040C8
:102C800011900F940FA8FEF723F9002801D072B617
:102C9000FEE713B030BD70470148FEF7A4BD000049
:102CA0006C010020F0B50268194B1A4C1A4D4FF018
:102CB0008047984205D0B84203D0A04201D0A84234
:102CC00003D122F070064A683243984205D0B842D8
:102CD00003D0A04201D0A84203D122F44074CA68B4
:102CE00022434C6922F08002224302608A68C26259
:102CF0000A688262984201D1096901630121416138
:102D00000169C90703D0016921F001010161F0BD2A
:102D1000002C0140000400400008004010B5846809
:102D200042EA032224F47F440A432243826010BD16
:102D3000826822F070020A4342F007018160704706
:102D400030B5036A026A22F00102026242688469B5
:102D500024F073050C682C4323F002058B682B4389
:102D60000A4DA8420BD123F00805CB6822F440722B
:102D70002B434D6923F0040315438A692A434260BB
:102D8000846149684163036230BD0000002C01404A
:102D900030B5026A036A23F0100303624368846952
:102DA0000D6824F4E64444EA05248D6822F02002EC
:102DB00042EA05120B4DA8420ED1CD6822F08002E6
:102DC00042EA05124D6923F4406343EA85038D69A5
:102DD00022F0400243EA85034360846149688163CD
:102DE000026230BD002C014030B5036A026A22F451
:102DF000807202624268C46923F4007324F0730590
:102E00000C682C438D6843EA05230C4DA8420ED173
:102E1000CD6823F4006343EA05234D6922F4405250
:102E200042EA05128D6923F4806342EA051242608A
:102E3000C4614968C163036230BD0000002C0140D9
:102E400030B5046A026A22F4805202624268C369A1
:102E50000D6823F4E64343EA05238D6824F4005407
:102E600044EA0534064DA84204D14D6922F480425B
:102E700042EA85124260C36149680164046230BD60
:102E8000002C014010B5036A046A24F001040462B6
:102E9000846924F0F00444EA021423F00A020A438D
:102EA0008461026210BD10B5036A046A24F0100444
:102EB0000462846923F0A00324F4704444EA0232DB
:102EC00043EA01118261016210BD10B5406A002120
:102ED000C185C184FEF7EAFD10BD01680C3151E8DF
:102EE000002F22F4907241E80023002BF5D10168F5
:102EF000143151E8002F22F0010241E80023002B99
:102F0000F5D1016B012909D101680C3151E8002F7D
:102F100022F0100241E80023002BF5D1202180F897
:102F2000421000210163704708B590F84210222931
:102F300001D0022008BD82684FF480539A4201D12B
:102F4000016921B1816A9A421BD04AB10AE0026844
:102F5000816A5268C2F308020A80816A891C08E00B
:102F6000026972B10268526802F07F020A70816AD7
:102F7000491C8162C18D491E0904090CC18503D019
:102F80001BE002685268F1E70168CA6822F020027B
:102F9000CA600168CA6822F48072CA6001684A691E
:102FA00022F001024A61202180F842100021416391
:102FB000026B012A03D0FEF731FF002008BD016338
:102FC00001680C3151E8002F22F0100241E8002383
:102FD000002BF5D101680A68D20602D50A68496853
:102FE0000091818DFEF761FDE7E7000070B50446B2
:102FF00000680169E26821F44051114301612169CF
:10300000A0680843616908432168CA6841F20C63FB
:103010009A430243CA6020684169A26921F4407161
:10302000114341611E492068884202D1FEF76CF8C5
:1030300001E0FEF759F800EBC00101EB00126068F7
:1030400064218000B2FBF0F3B3FBF1F36FF01806DC
:103050007343B2FBF0F5B2FBF0F605EB83053223C8
:1030600003EB0515B5FBF1F5B6FBF1F605F0F00540
:1030700005EB0615B2FBF0F6B2FBF0F0B0FBF1F099
:103080006FF01802504306EB800003EB0010B0FB1A
:10309000F1F0216800F00F002844886070BD000046
:1030A0000038014081628285C2850021416422216D
:1030B00080F84210016921B10168CA6842F4807247
:1030C000CA6001684A6942F001024A610068C16849
:1030D00041F02001C1600020704700000148FEF768
:1030E000E7BC0000B4010020FEE70907090E002834
:1030F00004DB00F1E02080F80014704700F00F00BE
:1031000000F1E02080F8141D70470000FDF7FEFD7F
:10311000FFF785FDFFF722F8FFF726F9FFF768F8BC
:10312000FFF79AF8FFF7ECF8FEF7F0FFFDF77EF9EE
:10313000FFF77AF9FDF782F9074C00BFFEF78CFF25
:10314000FDF784F9207820B10128F7D1FFF7C8FBFB
:10315000F4E7FFF71FFDF1E7210000202DE9F04D16
:1031600007460E4600F0A8FA04460D463A46334696
:1031700000F0FCFADFF86CA0DFF86CB01B4B0746E0
:10318000884616F0004F4FF000020AD000F024F9F4
:103190000AD900225B463846414600F057FA1BD256
:1031A00012E000F019F908D20022534620462946C1
:1031B00000F0E8FA04460D460EE000225B46384671
:1031C000414600F043FA07D80022534620462946DC
:1031D00000F00EF804460D463146204665F31E0108
:1031E000BDE8F08D0000F03F0000E03F0000E0BFD0
:1031F00010B591EA030F48BF83F0004300F1CA8283
:10320000841A71EB030C05D2121943EB0C03001B5B
:1032100061EB0C01DFF824E14FEA1154A4EB135CDD
:103220001EEA430F18BF9EEA445F73D023EA0E03E1
:10323000DCF1200E21EA045143F4801332D322FA48
:103240000CFE10EB0E0023FA0CFE41EB0E01CCF14C
:10325000200E03FA0EFE10EB0E0051F10001B1F545
:10326000801FCCF1200E32D201EB045112FA0EF283
:10327000BDE8104058BF7047401C38BF5FEA4202AB
:1032800018BF7047002814BF20F0010041F1000171
:103290004FEA410313F5001F38BF7047A1F1C04149
:1032A00000F0CEB9012A43EB0302ACF1200CDCF1B3
:1032B0001F0E32BF4FF0000E23FA0CF310EB030089
:1032C00041EB0451B4EB115FD0D0A1EB045101F5F7
:1032D000801149085FEA300001EB04510ED350F130
:1032E000000038BF12FA0EFE08D1BDE81040C9E751
:1032F000401C38BF5FEA4202CAD1C3E7BDE81040B4
:103300004FEA410313F5001F38BF7047A1F1C041D8
:1033100000F096B99EEA445F08D011EA5E0FBDE85E
:10332000104004BF01F0004100207047BDE810408C
:1033300070B500F037F900BF64FBBE3E0000E0FF4F
:10334000491058BFC1F140415B1058BFC3F1404321
:103350008B42EFF3008070474FEA1153A3F580636F
:10336000D3F11E03A8BFD3F1200C08DB4FF00042BD
:1033700042EAC12252EA505232FA03F0704709423F
:103380000BD4102BC4BF0020704703F5787CBCF130
:10339000FF3F05D04FF0FF3070474FF000007047FF
:1033A00070B500F0FFF800BF4992248000207047FC
:1033B000F0E7B0FA80F310FA03F10AD0C3F11D036D
:1033C00003F580634FEA41504FEA035202EBD121EB
:1033D00070474FF00000704751EA030C17D41CF5FA
:1033E000801F58BFBCF5801F00F10680994218BFAE
:1033F000704708BF9042704707D711F5801F58BF2C
:1034000013F5801F19D499427047894270471CF503
:10341000801F08D5BCF5801FF7D58B4218BF7047B9
:1034200008BF824270474FF4001C1CEB410F38BFAD
:103430001CEB430F01D28B42704770B500F0B2F81D
:10344000922449004FF000514FF08053FFF778BFAE
:10345000DFF848C170B51CEA111E1EBF1CEA131527
:103460009EEA0C0F95EA0C0F00F06F8081EA0304CE
:1034700023EA4C134EEAD47E21EA4C1141F4801128
:1034800043F48013AE44A1FB024CA0FB0365AEF1F4
:103490007F7E361955EB0C05A1FB034C4CF1000364
:1034A000A0FB021C16EB0C06654153F10003094218
:1034B00018BF46F0010613F4007F0BD14FEA033129
:1034C0004FEA0530340341EA155140EA16506FF0D7
:1034D00003020AE04FEAC3214FEAC520F40241EAA1
:1034E000555140EA56506FF0020202EB2E4201EBBA
:1034F000025585EACE710AD05FEA440C18BF24F069
:10350000004450F1000041F1000120EAD47040F283
:10351000FE7C624500D270BDA84214BF4FF08044CB
:103520004FF04044002E08BF0024BEF1806FA8BFBA
:10353000A1F1C041BDE8704080F282804FF00000F0
:1035400001F1C04101F0004170479EEA0C0F0CEA06
:10355000131518BF95EA0C0F06D04FF0000081EA52
:10356000030E0EF0004170BD00F01CF88900013E12
:1035700000F007B800F009B84FEA430C5FEA5C5C62
:1035800008D081EA030100F05BB84FEA410C5FEA22
:103590005C5CF6D14FF00000014970470000FF0766
:1035A0000000F87F0EF1020E2EF0030E5EF8046BA1
:1035B000364205D4012A43EB030515F5001F12D846
:1035C000012841EB010C1CF5001F0CD80ED14FEA6D
:1035D000D17C15F5001F0CEB4C0C0CF1020C08BF54
:1035E0004CEBD37C04E04FF0080C01E04FEAD37CB5
:1035F0000CEB4C0526FA05F606F00706B6F1040CAE
:1036000006D20EEB860CBDE870404CF0010C604712
:10361000DFE80CF0090B02024FF000414FF0000010
:10362000A1F5002170BD19461046012851EB010497
:1036300018BFD4F5001484BF002001F0004170BD14
:103640000808A0F500114FEA3101704753EA010C58
:1036500017D41CF5801F58BFBCF5801F00F10680F1
:103660008B4218BF704708BF8242704707D713F5D7
:10367000801F58BF11F5801F19D48B4270479B42A1
:1036800070471CF5801F08D5BCF5801FF7D59942FF
:1036900018BF704708BF904270474FF4001C1CEBE6
:1036A000430F38BF1CEB410F01D2994270470FB452
:1036B0000CBC03BCFFF7C1BE5FEA410C5FEA5C5C77
:1036C000ACF580635B1C39D4D3F1340240F3458000
:1036D000B2F1200314DA4FF0010C0CFA02FCACF149
:1036E00001030340B3EB5C0220EA030008BF10EAC9
:1036F0000C0F98BF704710EB0C0041F100017047B0
:103700000AD0C3F1200201FA02FC012821FA03F1D8
:1037100001FA03F14CF100004FF0010C0CFA03FC2C
:10372000ACF10103B0F1004F21EA030108BF11EA37
:103730000C0F4FF0000088BF61447047B3F1FF3FAA
:1037400028BF50EAC12C01F000414FF0000084BFB7
:1037500041F07C5141F470017047B3F5806FB8BF00
:10376000704770B5FFF71EFF40DBB6BE91EA030F4E
:1037700010B581F000413FF543AD83F0004300F008
:1037800009B8000010B591EA030F48BF83F0004369
:103790003FF536AD841A71EB030C07D212198CF089
:1037A000004C43EB0C03001B61EB0C01DFF8A4E1C0
:1037B0004FEA1154A4EB135C1EEA430F18BF9EEAB4
:1037C000445F00F0B08023EA6E03524221EA0451C4
:1037D000C3EB6E0338BF5B1EDCF1200E25D322FA4B
:1037E0000CFE10EB0E0043FA0CFE41EB0E01CCF187
:1037F000200E03FA0EFE10EB0E0051F10001CCF189
:10380000200E29D412FA0EF201EB0451BDE810404B
:1038100058BF7047401C1CBFB2F1004F70470028D2
:103820000CBF491C20F00100704712EB020E43EB65
:10383000030218BF4FF0010E4EEA4202ACF1200C19
:10384000DCF11E0E54D943FA0CFE10EB0E0051F1C0
:10385000FF31CCF11E0ED5D50EF1010E12FA0EFE7F
:10386000404141EB010101EB445C5FEA5C5C10D933
:1038700010EBDE7001EB045138BFBEF1004FBDE824
:10388000104018BF704700280CBF491C20F00100F1
:10389000704730D24FEAD42C11F5001124F40064A3
:1038A0001BD0B1FA81F20B3AA41AA41ED2F1200364
:1038B000914030FA03F31943904001EBCC71002C96
:1038C00001EB0451BDE81040A8BF704701F1C041B1
:1038D0004FF0000001F000417047B0FA80F310FA99
:1038E00003F100D110BDE41A173C4805C90AE4E70A
:1038F00001EB045110BD491001EB0451BDE810402B
:103900004FEA300002E04FF0000170474A0008BF64
:103910000042F8D0B2F5001F28BF704701F0004107
:103920004FF0000070479EEA445F07D011EA5E0F37
:10393000BDE8104004BF002100207047BDE81040E2
:1039400070B5FFF72FFE00BF40DFF63E83F0004169
:10395000104670470000E0FF43004FEAD30C4FEAE7
:103960003C0C43401FBF40070CF1605113F0FE4F69
:1039700070471CF0006F03D100200CF0004170472D
:103980000CF0004343EA507010B540EACC0000F060
:103990000EF800BF000000924FEA0001FFF750BE92
:1039A0004FF000414FF00000A1F5002170470EF1EB
:1039B000020E2EF0030E5EF8044B244204D44FEAAC
:1039C0004102B2F17F4F11D84FEA4003B3F17F4F6C
:1039D0000CD80ED14FEAD07CB2F17F4F0CEB4C0CDF
:1039E0000CF1020C08BF4CEBD17C04E04FF0080C4A
:1039F00001E04FEAD17C0CEB4C0324FA03F404F011
:103A00000704B4F1040C06D20EEB840CBDE81040A0
:103A10004CF0010C6047DFE80CF0070802024FF0A1
:103A20000040A0F5800010BD0846420018BFD2F14A
:103A3000807288BF00F0004010BD0102020304053F
:103A4000060708090A0B0C0D0E0F101001020203E5
:103A50000405060708090A0B0C0D0E0F10100000D4
:103A6000000000000000010203040607080900002E
:103A7000000001020304000000000000000000003C
:103A8000000000000000000000F80000000000003E
:103A900000333000000000160E00160E000000007B
:103AA00000000000000040C07840C0784000043FA3
:103AB00004043F040400007088FC08300000001873
:103AC00020FF211E0000F008F000E0180000002197
:103AD0001C031E211E0000F00888700000001E213B
:103AE000232419272110000000160E0000000000FA
:103AF000000000000000000000E0180402000000C8
:103B000000071820400000020418E00000000040F8
:103B1000201807000000404080F080404000020272
:103B2000010F01020200000000F00000000001018E
:103B3000011F01010100000000000000000000B0B2
:103B40007000000000000000000000000000000104
:103B5000010101010101000000000000000000302F
:103B600030000000000000000000806018040060C9
:103B700018060100000000E010080810E000000F27
:103B8000102020100F00001010F80000000000208E
:103B9000203F2020000000700808088870000030D6
:103BA000282422213000003008888848300000187E
:103BB000202020110E000000C02010F80000000797
:103BC0000424243F240000F808888808080000190D
:103BD000212020110E0000E0108888180000000F3E
:103BE000112020110E0000380808C8380800000015
:103BF000003F000000000070880808887000001C6A
:103C0000222121221C0000E010080810E000000022
:103C1000312222110F00000000C0C000000000008F
:103C2000003030000000000000C0C00000000000B4
:103C300080B07000000000008040201008000001EB
:103C4000020408102000404040404040400004046E
:103C50000404040404000008102040800000002038
:103C6000100804020100007048080808F000000075
:103C7000003036010000C030C828E810E000071806
:103C8000272423140B000000C038E0000000203C73
:103C900023020227382008F8888888700000203F17
:103CA000202020110E00C03008080808380007182E
:103CB00020202010080008F808080810E000203F25
:103CC000202020100F0008F88888E8081000203F06
:103CD00020202320180008F88888E8081000203FDA
:103CE000200003000000C030080808380000071852
:103CF0002020221E020008F808000008F808203FD3
:103D0000210101213F20000808F8080800000020D8
:103D1000203F2020000000000808F8080800C080AC
:103D200080807F00000008F888C028180800203F25
:103D300020012638200008F8080000000000203F7D
:103D400020202020300008F8F800F8F80800203F74
:103D5000003F003F200008F830C00008F808203F6E
:103D6000200007183F00E01008080810E0000F10BE
:103D7000202020100F0008F808080808F000203F55
:103D8000210101010000E01008080810E0000F18F0
:103D9000242438504F0008F8888888887000203F15
:103DA0002000030C30200070880808083800003814
:103DB000202121221C00180808F80808180000001B
:103DC000203F2000000008F808000008F808001F45
:103DD000202020201F000878880000C83808000034
:103DE00007380E010000F80800F80008F800033C4E
:103DF0000700073C03000818688080681808203016
:103E00002C03032C30200838C800C83808000000F4
:103E1000203F2000000010080808C838080020389B
:103E2000262120201800000000FE020202000000EF
:103E3000007F40404000000C30C000000000000047
:103E400000010638C00000020202FE00000000402F
:103E500040407F00000000201008040810200000EF
:103E60000000000000000000000000000000808052
:103E70008080808080800002040800000000000034
:103E80000000000000000000808080800000001919
:103E9000242222223F2008F8008080000000003FFA
:103EA000112020110E000000008080800000000E14
:103EB000112020201100000000808088F800000EF2
:103EC000112020103F200000808080800000001F13
:103ED000222222221300008080F088888818002087
:103EE000203F202000000000808080808000006B48
:103EF00094949493600008F8008080800000203F34
:103F0000210000203F200080989800000000002041
:103F1000203F20200000000000809898000000C092
:103F20008080807F000008F8000080808000203FB3
:103F300024022D302000000808F8000000000020B6
:103F4000203F202000008080808080808000203FF3
:103F500020003F20003F0080800080800000002083
:103F60003F2100203F200000808080800000001F53
:103F7000202020201F00808000808000000080FF23
:103F8000A12020110E000000008080808000000E23
:103F9000112020A0FF808080800080808000202071
:103FA0003F212000010000008080808080000033DD
:103FB000242424241900008080E080800000000078
:103FC000001F202000008080000000808000001F73
:103FD000202020103F208080800000808080000111
:103FE0000E300806010080800080008080800F3045
:103FF0000C030C300F0000808000808080000020C7
:10400000312E0E31200080808000008080808081F1
:104010008E70180601000080808080808000002162
:10402000302C2221300000000000807C02020000C1
:104030000000003F404000000000FF0000000000C2
:104040000000FF0000000002027C80000000004031
:10405000403F0000000000804040800000800000E1
:104060000000000101000000000000000000002F1F
:10407000000000000700070000147F147F140024D4
:104080002A7F2A1200231308646200364955225001
:1040900000000007000000001C2241000000412237
:1040A0001C000014083E08140008083E0808000020
:1040B00000A0600000080808080800006060000018
:1040C000002010080402003E5149453E0000427F96
:1040D0004000004261514946002141454B310018E2
:1040E00014127F10002745454539003C4A494930A4
:1040F000000171090503003649494936000649495E
:10410000291E000036360000000056360000000868
:104110001422410000141414141400004122140845
:10412000000201510906003E4955592E007C12112A
:10413000127C007F49494936003E41414122007FBF
:104140004141221C007F49494941007F0909090179
:10415000003E4149497A007F0808087F0000417FFE
:104160004100002040413F01007F08142241007FB0
:1041700040404040007F020C027F007F0408107F17
:10418000003E4141413E007F09090906003E415180
:10419000215E007F0919294600464949493100013D
:1041A000017F0101003F4040403F001F2040201F91
:1041B000003F4038403F0063140814630007087054
:1041C000080700615149454300007F41410000025A
:1041D00004081020000041417F0000040201020495
:1041E00000404040404000000102040000205454C0
:1041F0005478007F48444438003844444420003810
:104200004444487F00385454541800087E09010281
:104210000018A4A4A47C007F080404780000447D56
:104220004000004080847D00007F10284400000092
:10423000417F4000007C04180478007C0804047866
:1042400000384444443800FC242424180018242452
:1042500018FC007C0804040800485454542000044E
:104260003F444020003C4040207C001C2040201C5B
:10427000003C4030403C004428102844001CA0A0D2
:10428000A07C004464544C440000087F41000000BE
:10429000007F00000000417F0800000804081008AB
:1042A000000000000000000000000000000000000E
:1042B000000058380000000000000000000000006E
:1042C00000000000000000000000000000000000EE
:1042D0000000182424180000000000000000000066
:1042E000008060F8074020180F08C8080828180048
:1042F000010000FF00100C0340807F000106180041
:104300001010F01F10F000808282E2928A868000F6
:10431000402215081661000040807F000000000068
:10432000202020FE2020FF202020FF202020200011
:104330000000007F40404744444447404040000064
:10434000000000FE929292FE929292FE0000000007
:1043500008080484621E010001FE0204040808002B
:10436000FF0101013109090909897101010101FFF9
:10437000FF8080808080809681808080808080FF28
:10438000000000000000000000000000000000002D
:10439000000000000000000000000000000000001D
:1043A00000000000D443000800000000C8430008DB
:1043B00001000000BC4300080200000053656E735A
:1043C0006F72204461746100564F4641204465621B
:1043D0007567000050494420446174612056696546
:1043E00077000000044400080000002024000000C2
:1043F000280100082844000824000020840C000044
:10440000440100080100000010000000000000004E
:1044100000127A0000000000000000000000000010
:08442000000000000000000094
:04000005080000ED02
:00000001FF
